{
  "_format": "hh-sol-artifact-1",
  "contractName": "RandomNFT",
  "sourceName": "src/RandomNFT.sol",
  "abi": [
    {
      "inputs": [
        {
          "internalType": "string",
          "name": "_name",
          "type": "string"
        },
        {
          "internalType": "string",
          "name": "_symbol",
          "type": "string"
        },
        {
          "internalType": "string",
          "name": "_baseURI",
          "type": "string"
        }
      ],
      "stateMutability": "nonpayable",
      "type": "constructor"
    },
    {
      "inputs": [],
      "name": "InsufficientAmount",
      "type": "error"
    },
    {
      "inputs": [],
      "name": "MaxSupplyCrossed",
      "type": "error"
    },
    {
      "inputs": [],
      "name": "TokenNonExistent",
      "type": "error"
    },
    {
      "anonymous": false,
      "inputs": [
        {
          "indexed": true,
          "internalType": "address",
          "name": "owner",
          "type": "address"
        },
        {
          "indexed": true,
          "internalType": "address",
          "name": "approved",
          "type": "address"
        },
        {
          "indexed": true,
          "internalType": "uint256",
          "name": "tokenId",
          "type": "uint256"
        }
      ],
      "name": "Approval",
      "type": "event"
    },
    {
      "anonymous": false,
      "inputs": [
        {
          "indexed": true,
          "internalType": "address",
          "name": "owner",
          "type": "address"
        },
        {
          "indexed": true,
          "internalType": "address",
          "name": "operator",
          "type": "address"
        },
        {
          "indexed": false,
          "internalType": "bool",
          "name": "approved",
          "type": "bool"
        }
      ],
      "name": "ApprovalForAll",
      "type": "event"
    },
    {
      "anonymous": false,
      "inputs": [
        {
          "indexed": true,
          "internalType": "address",
          "name": "previousOwner",
          "type": "address"
        },
        {
          "indexed": true,
          "internalType": "address",
          "name": "newOwner",
          "type": "address"
        }
      ],
      "name": "OwnershipTransferred",
      "type": "event"
    },
    {
      "anonymous": false,
      "inputs": [
        {
          "indexed": true,
          "internalType": "address",
          "name": "from",
          "type": "address"
        },
        {
          "indexed": true,
          "internalType": "address",
          "name": "to",
          "type": "address"
        },
        {
          "indexed": true,
          "internalType": "uint256",
          "name": "tokenId",
          "type": "uint256"
        }
      ],
      "name": "Transfer",
      "type": "event"
    },
    {
      "inputs": [],
      "name": "MAX_SUPPLY",
      "outputs": [
        {
          "internalType": "uint256",
          "name": "",
          "type": "uint256"
        }
      ],
      "stateMutability": "view",
      "type": "function"
    },
    {
      "inputs": [],
      "name": "PRICE",
      "outputs": [
        {
          "internalType": "uint256",
          "name": "",
          "type": "uint256"
        }
      ],
      "stateMutability": "view",
      "type": "function"
    },
    {
      "inputs": [
        {
          "internalType": "address",
          "name": "to",
          "type": "address"
        },
        {
          "internalType": "uint256",
          "name": "tokenId",
          "type": "uint256"
        }
      ],
      "name": "approve",
      "outputs": [],
      "stateMutability": "nonpayable",
      "type": "function"
    },
    {
      "inputs": [
        {
          "internalType": "address",
          "name": "owner",
          "type": "address"
        }
      ],
      "name": "balanceOf",
      "outputs": [
        {
          "internalType": "uint256",
          "name": "",
          "type": "uint256"
        }
      ],
      "stateMutability": "view",
      "type": "function"
    },
    {
      "inputs": [],
      "name": "baseURI",
      "outputs": [
        {
          "internalType": "string",
          "name": "",
          "type": "string"
        }
      ],
      "stateMutability": "view",
      "type": "function"
    },
    {
      "inputs": [
        {
          "internalType": "uint256",
          "name": "tokenId",
          "type": "uint256"
        }
      ],
      "name": "getApproved",
      "outputs": [
        {
          "internalType": "address",
          "name": "",
          "type": "address"
        }
      ],
      "stateMutability": "view",
      "type": "function"
    },
    {
      "inputs": [
        {
          "internalType": "address",
          "name": "owner",
          "type": "address"
        },
        {
          "internalType": "address",
          "name": "operator",
          "type": "address"
        }
      ],
      "name": "isApprovedForAll",
      "outputs": [
        {
          "internalType": "bool",
          "name": "",
          "type": "bool"
        }
      ],
      "stateMutability": "view",
      "type": "function"
    },
    {
      "inputs": [
        {
          "internalType": "address",
          "name": "recipient",
          "type": "address"
        }
      ],
      "name": "mintTo",
      "outputs": [
        {
          "internalType": "uint256",
          "name": "",
          "type": "uint256"
        }
      ],
      "stateMutability": "payable",
      "type": "function"
    },
    {
      "inputs": [],
      "name": "name",
      "outputs": [
        {
          "internalType": "string",
          "name": "",
          "type": "string"
        }
      ],
      "stateMutability": "view",
      "type": "function"
    },
    {
      "inputs": [],
      "name": "nextTokenId",
      "outputs": [
        {
          "internalType": "uint256",
          "name": "",
          "type": "uint256"
        }
      ],
      "stateMutability": "view",
      "type": "function"
    },
    {
      "inputs": [],
      "name": "owner",
      "outputs": [
        {
          "internalType": "address",
          "name": "",
          "type": "address"
        }
      ],
      "stateMutability": "view",
      "type": "function"
    },
    {
      "inputs": [
        {
          "internalType": "uint256",
          "name": "tokenId",
          "type": "uint256"
        }
      ],
      "name": "ownerOf",
      "outputs": [
        {
          "internalType": "address",
          "name": "",
          "type": "address"
        }
      ],
      "stateMutability": "view",
      "type": "function"
    },
    {
      "inputs": [],
      "name": "renounceOwnership",
      "outputs": [],
      "stateMutability": "nonpayable",
      "type": "function"
    },
    {
      "inputs": [
        {
          "internalType": "address",
          "name": "from",
          "type": "address"
        },
        {
          "internalType": "address",
          "name": "to",
          "type": "address"
        },
        {
          "internalType": "uint256",
          "name": "tokenId",
          "type": "uint256"
        }
      ],
      "name": "safeTransferFrom",
      "outputs": [],
      "stateMutability": "nonpayable",
      "type": "function"
    },
    {
      "inputs": [
        {
          "internalType": "address",
          "name": "from",
          "type": "address"
        },
        {
          "internalType": "address",
          "name": "to",
          "type": "address"
        },
        {
          "internalType": "uint256",
          "name": "tokenId",
          "type": "uint256"
        },
        {
          "internalType": "bytes",
          "name": "_data",
          "type": "bytes"
        }
      ],
      "name": "safeTransferFrom",
      "outputs": [],
      "stateMutability": "nonpayable",
      "type": "function"
    },
    {
      "inputs": [
        {
          "internalType": "address",
          "name": "operator",
          "type": "address"
        },
        {
          "internalType": "bool",
          "name": "approved",
          "type": "bool"
        }
      ],
      "name": "setApprovalForAll",
      "outputs": [],
      "stateMutability": "nonpayable",
      "type": "function"
    },
    {
      "inputs": [
        {
          "internalType": "bytes4",
          "name": "interfaceId",
          "type": "bytes4"
        }
      ],
      "name": "supportsInterface",
      "outputs": [
        {
          "internalType": "bool",
          "name": "",
          "type": "bool"
        }
      ],
      "stateMutability": "view",
      "type": "function"
    },
    {
      "inputs": [],
      "name": "symbol",
      "outputs": [
        {
          "internalType": "string",
          "name": "",
          "type": "string"
        }
      ],
      "stateMutability": "view",
      "type": "function"
    },
    {
      "inputs": [
        {
          "internalType": "uint256",
          "name": "tokenId",
          "type": "uint256"
        }
      ],
      "name": "tokenURI",
      "outputs": [
        {
          "internalType": "string",
          "name": "",
          "type": "string"
        }
      ],
      "stateMutability": "view",
      "type": "function"
    },
    {
      "inputs": [
        {
          "internalType": "address",
          "name": "from",
          "type": "address"
        },
        {
          "internalType": "address",
          "name": "to",
          "type": "address"
        },
        {
          "internalType": "uint256",
          "name": "tokenId",
          "type": "uint256"
        }
      ],
      "name": "transferFrom",
      "outputs": [],
      "stateMutability": "nonpayable",
      "type": "function"
    },
    {
      "inputs": [
        {
          "internalType": "address",
          "name": "newOwner",
          "type": "address"
        }
      ],
      "name": "transferOwnership",
      "outputs": [],
      "stateMutability": "nonpayable",
      "type": "function"
    },
    {
      "inputs": [
        {
          "internalType": "address payable",
          "name": "recipient",
          "type": "address"
        }
      ],
      "name": "withdraw",
      "outputs": [],
      "stateMutability": "nonpayable",
      "type": "function"
    }
  ],
  "bytecode": "0x60806040523480156200001157600080fd5b5060405162003492380380620034928339818101604052810190620000379190620002ab565b82828160009080519060200190620000519291906200017d565b5080600190805190602001906200006a9291906200017d565b5050506200008d62000081620000af60201b60201c565b620000b760201b60201c565b8060079080519060200190620000a59291906200017d565b50505050620004e8565b600033905090565b6000600660009054906101000a900473ffffffffffffffffffffffffffffffffffffffff16905081600660006101000a81548173ffffffffffffffffffffffffffffffffffffffff021916908373ffffffffffffffffffffffffffffffffffffffff1602179055508173ffffffffffffffffffffffffffffffffffffffff168173ffffffffffffffffffffffffffffffffffffffff167f8be0079c531659141344cd1fd0a4f28419497f9722a3daafe3b4186f6b6457e060405160405180910390a35050565b8280546200018b90620003f9565b90600052602060002090601f016020900481019282620001af5760008555620001fb565b82601f10620001ca57805160ff1916838001178555620001fb565b82800160010185558215620001fb579182015b82811115620001fa578251825591602001919060010190620001dd565b5b5090506200020a91906200020e565b5090565b5b80821115620002295760008160009055506001016200020f565b5090565b6000620002446200023e846200038d565b62000364565b905082815260208101848484011115620002635762000262620004c8565b5b62000270848285620003c3565b509392505050565b600082601f83011262000290576200028f620004c3565b5b8151620002a28482602086016200022d565b91505092915050565b600080600060608486031215620002c757620002c6620004d2565b5b600084015167ffffffffffffffff811115620002e857620002e7620004cd565b5b620002f68682870162000278565b935050602084015167ffffffffffffffff8111156200031a5762000319620004cd565b5b620003288682870162000278565b925050604084015167ffffffffffffffff8111156200034c576200034b620004cd565b5b6200035a8682870162000278565b9150509250925092565b60006200037062000383565b90506200037e82826200042f565b919050565b6000604051905090565b600067ffffffffffffffff821115620003ab57620003aa62000494565b5b620003b682620004d7565b9050602081019050919050565b60005b83811015620003e3578082015181840152602081019050620003c6565b83811115620003f3576000848401525b50505050565b600060028204905060018216806200041257607f821691505b6020821081141562000429576200042862000465565b5b50919050565b6200043a82620004d7565b810181811067ffffffffffffffff821117156200045c576200045b62000494565b5b80604052505050565b7f4e487b7100000000000000000000000000000000000000000000000000000000600052602260045260246000fd5b7f4e487b7100000000000000000000000000000000000000000000000000000000600052604160045260246000fd5b600080fd5b600080fd5b600080fd5b600080fd5b6000601f19601f8301169050919050565b612f9a80620004f86000396000f3fe6080604052600436106101355760003560e01c8063715018a6116100ab57806395d89b411161006f57806395d89b411461041b578063a22cb46514610446578063b88d4fde1461046f578063c87b56dd14610498578063e985e9c5146104d5578063f2fde38b1461051257610135565b8063715018a614610353578063755edd171461036a57806375794a3c1461039a5780638d859f3e146103c55780638da5cb5b146103f057610135565b806332cb6b0c116100fd57806332cb6b0c1461023157806342842e0e1461025c57806351cff8d9146102855780636352211e146102ae5780636c0360eb146102eb57806370a082311461031657610135565b806301ffc9a71461013a57806306fdde0314610177578063081812fc146101a2578063095ea7b3146101df57806323b872dd14610208575b600080fd5b34801561014657600080fd5b50610161600480360381019061015c9190612024565b61053b565b60405161016e9190612492565b60405180910390f35b34801561018357600080fd5b5061018c61061d565b60405161019991906124ad565b60405180910390f35b3480156101ae57600080fd5b506101c960048036038101906101c4919061207e565b6106af565b6040516101d6919061242b565b60405180910390f35b3480156101eb57600080fd5b5061020660048036038101906102019190611fe4565b610734565b005b34801561021457600080fd5b5061022f600480360381019061022a9190611ece565b61084c565b005b34801561023d57600080fd5b506102466108ac565b60405161025391906126af565b60405180910390f35b34801561026857600080fd5b50610283600480360381019061027e9190611ece565b6108b2565b005b34801561029157600080fd5b506102ac60048036038101906102a79190611e61565b6108d2565b005b3480156102ba57600080fd5b506102d560048036038101906102d0919061207e565b610998565b6040516102e2919061242b565b60405180910390f35b3480156102f757600080fd5b50610300610a4a565b60405161030d91906124ad565b60405180910390f35b34801561032257600080fd5b5061033d60048036038101906103389190611e34565b610ad8565b60405161034a91906126af565b60405180910390f35b34801561035f57600080fd5b50610368610b90565b005b610384600480360381019061037f9190611e34565b610c18565b60405161039191906126af565b60405180910390f35b3480156103a657600080fd5b506103af610cc3565b6040516103bc91906126af565b60405180910390f35b3480156103d157600080fd5b506103da610cc9565b6040516103e791906126af565b60405180910390f35b3480156103fc57600080fd5b50610405610cd4565b604051610412919061242b565b60405180910390f35b34801561042757600080fd5b50610430610cfe565b60405161043d91906124ad565b60405180910390f35b34801561045257600080fd5b5061046d60048036038101906104689190611fa4565b610d90565b005b34801561047b57600080fd5b5061049660048036038101906104919190611f21565b610da6565b005b3480156104a457600080fd5b506104bf60048036038101906104ba919061207e565b610e08565b6040516104cc91906124ad565b60405180910390f35b3480156104e157600080fd5b506104fc60048036038101906104f79190611e8e565b610ed7565b6040516105099190612492565b60405180910390f35b34801561051e57600080fd5b5061053960048036038101906105349190611e34565b610f6b565b005b60007f80ac58cd000000000000000000000000000000000000000000000000000000007bffffffffffffffffffffffffffffffffffffffffffffffffffffffff1916827bffffffffffffffffffffffffffffffffffffffffffffffffffffffff1916148061060657507f5b5e139f000000000000000000000000000000000000000000000000000000007bffffffffffffffffffffffffffffffffffffffffffffffffffffffff1916827bffffffffffffffffffffffffffffffffffffffffffffffffffffffff1916145b80610616575061061582611063565b5b9050919050565b60606000805461062c906128fb565b80601f0160208091040260200160405190810160405280929190818152602001828054610658906128fb565b80156106a55780601f1061067a576101008083540402835291602001916106a5565b820191906000526020600020905b81548152906001019060200180831161068857829003601f168201915b5050505050905090565b60006106ba826110cd565b6106f9576040517f08c379a00000000000000000000000000000000000000000000000000000000081526004016106f09061262f565b60405180910390fd5b6004600083815260200190815260200160002060009054906101000a900473ffffffffffffffffffffffffffffffffffffffff169050919050565b600061073f82610998565b90508073ffffffffffffffffffffffffffffffffffffffff168373ffffffffffffffffffffffffffffffffffffffff1614156107b0576040517f08c379a00000000000000000000000000000000000000000000000000000000081526004016107a79061266f565b60405180910390fd5b8073ffffffffffffffffffffffffffffffffffffffff166107cf611139565b73ffffffffffffffffffffffffffffffffffffffff1614806107fe57506107fd816107f8611139565b610ed7565b5b61083d576040517f08c379a0000000000000000000000000000000000000000000000000000000008152600401610834906125af565b60405180910390fd5b6108478383611141565b505050565b61085d610857611139565b826111fa565b61089c576040517f08c379a00000000000000000000000000000000000000000000000000000000081526004016108939061268f565b60405180910390fd5b6108a78383836112d8565b505050565b6103e881565b6108cd83838360405180602001604052806000815250610da6565b505050565b6108da611139565b73ffffffffffffffffffffffffffffffffffffffff166108f8610cd4565b73ffffffffffffffffffffffffffffffffffffffff161461094e576040517f08c379a00000000000000000000000000000000000000000000000000000000081526004016109459061264f565b60405180910390fd5b8073ffffffffffffffffffffffffffffffffffffffff166108fc479081150290604051600060405180830381858888f19350505050158015610994573d6000803e3d6000fd5b5050565b6000806002600084815260200190815260200160002060009054906101000a900473ffffffffffffffffffffffffffffffffffffffff169050600073ffffffffffffffffffffffffffffffffffffffff168173ffffffffffffffffffffffffffffffffffffffff161415610a41576040517f08c379a0000000000000000000000000000000000000000000000000000000008152600401610a38906125ef565b60405180910390fd5b80915050919050565b60078054610a57906128fb565b80601f0160208091040260200160405190810160405280929190818152602001828054610a83906128fb565b8015610ad05780601f10610aa557610100808354040283529160200191610ad0565b820191906000526020600020905b815481529060010190602001808311610ab357829003601f168201915b505050505081565b60008073ffffffffffffffffffffffffffffffffffffffff168273ffffffffffffffffffffffffffffffffffffffff161415610b49576040517f08c379a0000000000000000000000000000000000000000000000000000000008152600401610b40906125cf565b60405180910390fd5b600360008373ffffffffffffffffffffffffffffffffffffffff1673ffffffffffffffffffffffffffffffffffffffff168152602001908152602001600020549050919050565b610b98611139565b73ffffffffffffffffffffffffffffffffffffffff16610bb6610cd4565b73ffffffffffffffffffffffffffffffffffffffff1614610c0c576040517f08c379a0000000000000000000000000000000000000000000000000000000008152600401610c039061264f565b60405180910390fd5b610c16600061153f565b565b600066038d7ea4c68000341015610c5b576040517f5945ea5600000000000000000000000000000000000000000000000000000000815260040160405180910390fd5b6000600860008154610c6c9061295e565b91905081905590506103e8811115610cb0576040517f66be2fb300000000000000000000000000000000000000000000000000000000815260040160405180910390fd5b610cba8382611605565b80915050919050565b60085481565b66038d7ea4c6800081565b6000600660009054906101000a900473ffffffffffffffffffffffffffffffffffffffff16905090565b606060018054610d0d906128fb565b80601f0160208091040260200160405190810160405280929190818152602001828054610d39906128fb565b8015610d865780601f10610d5b57610100808354040283529160200191610d86565b820191906000526020600020905b815481529060010190602001808311610d6957829003601f168201915b5050505050905090565b610da2610d9b611139565b8383611623565b5050565b610db7610db1611139565b836111fa565b610df6576040517f08c379a0000000000000000000000000000000000000000000000000000000008152600401610ded9061268f565b60405180910390fd5b610e0284848484611790565b50505050565b6060600073ffffffffffffffffffffffffffffffffffffffff16610e2b83610998565b73ffffffffffffffffffffffffffffffffffffffff161415610e79576040517f74fc75bf00000000000000000000000000000000000000000000000000000000815260040160405180910390fd5b600060078054610e88906128fb565b905011610ea45760405180602001604052806000815250610ed0565b6007610eaf836117ec565b604051602001610ec0929190612407565b6040516020818303038152906040525b9050919050565b6000600560008473ffffffffffffffffffffffffffffffffffffffff1673ffffffffffffffffffffffffffffffffffffffff16815260200190815260200160002060008373ffffffffffffffffffffffffffffffffffffffff1673ffffffffffffffffffffffffffffffffffffffff16815260200190815260200160002060009054906101000a900460ff16905092915050565b610f73611139565b73ffffffffffffffffffffffffffffffffffffffff16610f91610cd4565b73ffffffffffffffffffffffffffffffffffffffff1614610fe7576040517f08c379a0000000000000000000000000000000000000000000000000000000008152600401610fde9061264f565b60405180910390fd5b600073ffffffffffffffffffffffffffffffffffffffff168173ffffffffffffffffffffffffffffffffffffffff161415611057576040517f08c379a000000000000000000000000000000000000000000000000000000000815260040161104e906124ef565b60405180910390fd5b6110608161153f565b50565b60007f01ffc9a7000000000000000000000000000000000000000000000000000000007bffffffffffffffffffffffffffffffffffffffffffffffffffffffff1916827bffffffffffffffffffffffffffffffffffffffffffffffffffffffff1916149050919050565b60008073ffffffffffffffffffffffffffffffffffffffff166002600084815260200190815260200160002060009054906101000a900473ffffffffffffffffffffffffffffffffffffffff1673ffffffffffffffffffffffffffffffffffffffff1614159050919050565b600033905090565b816004600083815260200190815260200160002060006101000a81548173ffffffffffffffffffffffffffffffffffffffff021916908373ffffffffffffffffffffffffffffffffffffffff160217905550808273ffffffffffffffffffffffffffffffffffffffff166111b483610998565b73ffffffffffffffffffffffffffffffffffffffff167f8c5be1e5ebec7d5bd14f71427d1e84f3dd0314c0f7b2291e5b200ac8c7c3b92560405160405180910390a45050565b6000611205826110cd565b611244576040517f08c379a000000000000000000000000000000000000000000000000000000000815260040161123b9061258f565b60405180910390fd5b600061124f83610998565b90508073ffffffffffffffffffffffffffffffffffffffff168473ffffffffffffffffffffffffffffffffffffffff16148061129157506112908185610ed7565b5b806112cf57508373ffffffffffffffffffffffffffffffffffffffff166112b7846106af565b73ffffffffffffffffffffffffffffffffffffffff16145b91505092915050565b8273ffffffffffffffffffffffffffffffffffffffff166112f882610998565b73ffffffffffffffffffffffffffffffffffffffff161461134e576040517f08c379a00000000000000000000000000000000000000000000000000000000081526004016113459061250f565b60405180910390fd5b600073ffffffffffffffffffffffffffffffffffffffff168273ffffffffffffffffffffffffffffffffffffffff1614156113be576040517f08c379a00000000000000000000000000000000000000000000000000000000081526004016113b59061254f565b60405180910390fd5b6113c983838361194d565b6113d4600082611141565b6001600360008573ffffffffffffffffffffffffffffffffffffffff1673ffffffffffffffffffffffffffffffffffffffff168152602001908152602001600020600082825461142491906127ff565b925050819055506001600360008473ffffffffffffffffffffffffffffffffffffffff1673ffffffffffffffffffffffffffffffffffffffff168152602001908152602001600020600082825461147b9190612778565b92505081905550816002600083815260200190815260200160002060006101000a81548173ffffffffffffffffffffffffffffffffffffffff021916908373ffffffffffffffffffffffffffffffffffffffff160217905550808273ffffffffffffffffffffffffffffffffffffffff168473ffffffffffffffffffffffffffffffffffffffff167fddf252ad1be2c89b69c2b068fc378daa952ba7f163c4a11628f55a4df523b3ef60405160405180910390a461153a838383611952565b505050565b6000600660009054906101000a900473ffffffffffffffffffffffffffffffffffffffff16905081600660006101000a81548173ffffffffffffffffffffffffffffffffffffffff021916908373ffffffffffffffffffffffffffffffffffffffff1602179055508173ffffffffffffffffffffffffffffffffffffffff168173ffffffffffffffffffffffffffffffffffffffff167f8be0079c531659141344cd1fd0a4f28419497f9722a3daafe3b4186f6b6457e060405160405180910390a35050565b61161f828260405180602001604052806000815250611957565b5050565b8173ffffffffffffffffffffffffffffffffffffffff168373ffffffffffffffffffffffffffffffffffffffff161415611692576040517f08c379a00000000000000000000000000000000000000000000000000000000081526004016116899061256f565b60405180910390fd5b80600560008573ffffffffffffffffffffffffffffffffffffffff1673ffffffffffffffffffffffffffffffffffffffff16815260200190815260200160002060008473ffffffffffffffffffffffffffffffffffffffff1673ffffffffffffffffffffffffffffffffffffffff16815260200190815260200160002060006101000a81548160ff0219169083151502179055508173ffffffffffffffffffffffffffffffffffffffff168373ffffffffffffffffffffffffffffffffffffffff167f17307eab39ab6107e8899845ad3d59bd9653f200f220920489ca2b5937696c31836040516117839190612492565b60405180910390a3505050565b61179b8484846112d8565b6117a7848484846119b2565b6117e6576040517f08c379a00000000000000000000000000000000000000000000000000000000081526004016117dd906124cf565b60405180910390fd5b50505050565b60606000821415611834576040518060400160405280600181526020017f30000000000000000000000000000000000000000000000000000000000000008152509050611948565b600082905060005b6000821461186657808061184f9061295e565b915050600a8261185f91906127ce565b915061183c565b60008167ffffffffffffffff81111561188257611881612a94565b5b6040519080825280601f01601f1916602001820160405280156118b45781602001600182028036833780820191505090505b5090505b60008514611941576001826118cd91906127ff565b9150600a856118dc91906129a7565b60306118e89190612778565b60f81b8183815181106118fe576118fd612a65565b5b60200101907effffffffffffffffffffffffffffffffffffffffffffffffffffffffffffff1916908160001a905350600a8561193a91906127ce565b94506118b8565b8093505050505b919050565b505050565b505050565b6119618383611b49565b61196e60008484846119b2565b6119ad576040517f08c379a00000000000000000000000000000000000000000000000000000000081526004016119a4906124cf565b60405180910390fd5b505050565b60006119d38473ffffffffffffffffffffffffffffffffffffffff16611d23565b15611b3c578373ffffffffffffffffffffffffffffffffffffffff1663150b7a026119fc611139565b8786866040518563ffffffff1660e01b8152600401611a1e9493929190612446565b602060405180830381600087803b158015611a3857600080fd5b505af1925050508015611a6957506040513d601f19601f82011682018060405250810190611a669190612051565b60015b611aec573d8060008114611a99576040519150601f19603f3d011682016040523d82523d6000602084013e611a9e565b606091505b50600081511415611ae4576040517f08c379a0000000000000000000000000000000000000000000000000000000008152600401611adb906124cf565b60405180910390fd5b805181602001fd5b63150b7a0260e01b7bffffffffffffffffffffffffffffffffffffffffffffffffffffffff1916817bffffffffffffffffffffffffffffffffffffffffffffffffffffffff191614915050611b41565b600190505b949350505050565b600073ffffffffffffffffffffffffffffffffffffffff168273ffffffffffffffffffffffffffffffffffffffff161415611bb9576040517f08c379a0000000000000000000000000000000000000000000000000000000008152600401611bb09061260f565b60405180910390fd5b611bc2816110cd565b15611c02576040517f08c379a0000000000000000000000000000000000000000000000000000000008152600401611bf99061252f565b60405180910390fd5b611c0e6000838361194d565b6001600360008473ffffffffffffffffffffffffffffffffffffffff1673ffffffffffffffffffffffffffffffffffffffff1681526020019081526020016000206000828254611c5e9190612778565b92505081905550816002600083815260200190815260200160002060006101000a81548173ffffffffffffffffffffffffffffffffffffffff021916908373ffffffffffffffffffffffffffffffffffffffff160217905550808273ffffffffffffffffffffffffffffffffffffffff16600073ffffffffffffffffffffffffffffffffffffffff167fddf252ad1be2c89b69c2b068fc378daa952ba7f163c4a11628f55a4df523b3ef60405160405180910390a4611d1f60008383611952565b5050565b6000808273ffffffffffffffffffffffffffffffffffffffff163b119050919050565b6000611d59611d54846126ef565b6126ca565b905082815260208101848484011115611d7557611d74612ac8565b5b611d808482856128b9565b509392505050565b600081359050611d9781612ef1565b92915050565b600081359050611dac81612f08565b92915050565b600081359050611dc181612f1f565b92915050565b600081359050611dd681612f36565b92915050565b600081519050611deb81612f36565b92915050565b600082601f830112611e0657611e05612ac3565b5b8135611e16848260208601611d46565b91505092915050565b600081359050611e2e81612f4d565b92915050565b600060208284031215611e4a57611e49612ad2565b5b6000611e5884828501611d88565b91505092915050565b600060208284031215611e7757611e76612ad2565b5b6000611e8584828501611d9d565b91505092915050565b60008060408385031215611ea557611ea4612ad2565b5b6000611eb385828601611d88565b9250506020611ec485828601611d88565b9150509250929050565b600080600060608486031215611ee757611ee6612ad2565b5b6000611ef586828701611d88565b9350506020611f0686828701611d88565b9250506040611f1786828701611e1f565b9150509250925092565b60008060008060808587031215611f3b57611f3a612ad2565b5b6000611f4987828801611d88565b9450506020611f5a87828801611d88565b9350506040611f6b87828801611e1f565b925050606085013567ffffffffffffffff811115611f8c57611f8b612acd565b5b611f9887828801611df1565b91505092959194509250565b60008060408385031215611fbb57611fba612ad2565b5b6000611fc985828601611d88565b9250506020611fda85828601611db2565b9150509250929050565b60008060408385031215611ffb57611ffa612ad2565b5b600061200985828601611d88565b925050602061201a85828601611e1f565b9150509250929050565b60006020828403121561203a57612039612ad2565b5b600061204884828501611dc7565b91505092915050565b60006020828403121561206757612066612ad2565b5b600061207584828501611ddc565b91505092915050565b60006020828403121561209457612093612ad2565b5b60006120a284828501611e1f565b91505092915050565b6120b481612833565b82525050565b6120c381612857565b82525050565b60006120d482612735565b6120de818561274b565b93506120ee8185602086016128c8565b6120f781612ad7565b840191505092915050565b600061210d82612740565b612117818561275c565b93506121278185602086016128c8565b61213081612ad7565b840191505092915050565b600061214682612740565b612150818561276d565b93506121608185602086016128c8565b80840191505092915050565b60008154612179816128fb565b612183818661276d565b9450600182166000811461219e57600181146121af576121e2565b60ff198316865281860193506121e2565b6121b885612720565b60005b838110156121da578154818901526001820191506020810190506121bb565b838801955050505b50505092915050565b60006121f860328361275c565b915061220382612ae8565b604082019050919050565b600061221b60268361275c565b915061222682612b37565b604082019050919050565b600061223e60258361275c565b915061224982612b86565b604082019050919050565b6000612261601c8361275c565b915061226c82612bd5565b602082019050919050565b600061228460248361275c565b915061228f82612bfe565b604082019050919050565b60006122a760198361275c565b91506122b282612c4d565b602082019050919050565b60006122ca602c8361275c565b91506122d582612c76565b604082019050919050565b60006122ed60388361275c565b91506122f882612cc5565b604082019050919050565b6000612310602a8361275c565b915061231b82612d14565b604082019050919050565b600061233360298361275c565b915061233e82612d63565b604082019050919050565b600061235660208361275c565b915061236182612db2565b602082019050919050565b6000612379602c8361275c565b915061238482612ddb565b604082019050919050565b600061239c60208361275c565b91506123a782612e2a565b602082019050919050565b60006123bf60218361275c565b91506123ca82612e53565b604082019050919050565b60006123e260318361275c565b91506123ed82612ea2565b604082019050919050565b612401816128af565b82525050565b6000612413828561216c565b915061241f828461213b565b91508190509392505050565b600060208201905061244060008301846120ab565b92915050565b600060808201905061245b60008301876120ab565b61246860208301866120ab565b61247560408301856123f8565b818103606083015261248781846120c9565b905095945050505050565b60006020820190506124a760008301846120ba565b92915050565b600060208201905081810360008301526124c78184612102565b905092915050565b600060208201905081810360008301526124e8816121eb565b9050919050565b600060208201905081810360008301526125088161220e565b9050919050565b6000602082019050818103600083015261252881612231565b9050919050565b6000602082019050818103600083015261254881612254565b9050919050565b6000602082019050818103600083015261256881612277565b9050919050565b600060208201905081810360008301526125888161229a565b9050919050565b600060208201905081810360008301526125a8816122bd565b9050919050565b600060208201905081810360008301526125c8816122e0565b9050919050565b600060208201905081810360008301526125e881612303565b9050919050565b6000602082019050818103600083015261260881612326565b9050919050565b6000602082019050818103600083015261262881612349565b9050919050565b600060208201905081810360008301526126488161236c565b9050919050565b600060208201905081810360008301526126688161238f565b9050919050565b60006020820190508181036000830152612688816123b2565b9050919050565b600060208201905081810360008301526126a8816123d5565b9050919050565b60006020820190506126c460008301846123f8565b92915050565b60006126d46126e5565b90506126e0828261292d565b919050565b6000604051905090565b600067ffffffffffffffff82111561270a57612709612a94565b5b61271382612ad7565b9050602081019050919050565b60008190508160005260206000209050919050565b600081519050919050565b600081519050919050565b600082825260208201905092915050565b600082825260208201905092915050565b600081905092915050565b6000612783826128af565b915061278e836128af565b9250827fffffffffffffffffffffffffffffffffffffffffffffffffffffffffffffffff038211156127c3576127c26129d8565b5b828201905092915050565b60006127d9826128af565b91506127e4836128af565b9250826127f4576127f3612a07565b5b828204905092915050565b600061280a826128af565b9150612815836128af565b925082821015612828576128276129d8565b5b828203905092915050565b600061283e8261288f565b9050919050565b60006128508261288f565b9050919050565b60008115159050919050565b60007fffffffff0000000000000000000000000000000000000000000000000000000082169050919050565b600073ffffffffffffffffffffffffffffffffffffffff82169050919050565b6000819050919050565b82818337600083830152505050565b60005b838110156128e65780820151818401526020810190506128cb565b838111156128f5576000848401525b50505050565b6000600282049050600182168061291357607f821691505b6020821081141561292757612926612a36565b5b50919050565b61293682612ad7565b810181811067ffffffffffffffff8211171561295557612954612a94565b5b80604052505050565b6000612969826128af565b91507fffffffffffffffffffffffffffffffffffffffffffffffffffffffffffffffff82141561299c5761299b6129d8565b5b600182019050919050565b60006129b2826128af565b91506129bd836128af565b9250826129cd576129cc612a07565b5b828206905092915050565b7f4e487b7100000000000000000000000000000000000000000000000000000000600052601160045260246000fd5b7f4e487b7100000000000000000000000000000000000000000000000000000000600052601260045260246000fd5b7f4e487b7100000000000000000000000000000000000000000000000000000000600052602260045260246000fd5b7f4e487b7100000000000000000000000000000000000000000000000000000000600052603260045260246000fd5b7f4e487b7100000000000000000000000000000000000000000000000000000000600052604160045260246000fd5b600080fd5b600080fd5b600080fd5b600080fd5b6000601f19601f8301169050919050565b7f4552433732313a207472616e7366657220746f206e6f6e20455243373231526560008201527f63656976657220696d706c656d656e7465720000000000000000000000000000602082015250565b7f4f776e61626c653a206e6577206f776e657220697320746865207a65726f206160008201527f6464726573730000000000000000000000000000000000000000000000000000602082015250565b7f4552433732313a207472616e736665722066726f6d20696e636f72726563742060008201527f6f776e6572000000000000000000000000000000000000000000000000000000602082015250565b7f4552433732313a20746f6b656e20616c7265616479206d696e74656400000000600082015250565b7f4552433732313a207472616e7366657220746f20746865207a65726f2061646460008201527f7265737300000000000000000000000000000000000000000000000000000000602082015250565b7f4552433732313a20617070726f766520746f2063616c6c657200000000000000600082015250565b7f4552433732313a206f70657261746f7220717565727920666f72206e6f6e657860008201527f697374656e7420746f6b656e0000000000000000000000000000000000000000602082015250565b7f4552433732313a20617070726f76652063616c6c6572206973206e6f74206f7760008201527f6e6572206e6f7220617070726f76656420666f7220616c6c0000000000000000602082015250565b7f4552433732313a2062616c616e636520717565727920666f7220746865207a6560008201527f726f206164647265737300000000000000000000000000000000000000000000602082015250565b7f4552433732313a206f776e657220717565727920666f72206e6f6e657869737460008201527f656e7420746f6b656e0000000000000000000000000000000000000000000000602082015250565b7f4552433732313a206d696e7420746f20746865207a65726f2061646472657373600082015250565b7f4552433732313a20617070726f76656420717565727920666f72206e6f6e657860008201527f697374656e7420746f6b656e0000000000000000000000000000000000000000602082015250565b7f4f776e61626c653a2063616c6c6572206973206e6f7420746865206f776e6572600082015250565b7f4552433732313a20617070726f76616c20746f2063757272656e74206f776e6560008201527f7200000000000000000000000000000000000000000000000000000000000000602082015250565b7f4552433732313a207472616e736665722063616c6c6572206973206e6f74206f60008201527f776e6572206e6f7220617070726f766564000000000000000000000000000000602082015250565b612efa81612833565b8114612f0557600080fd5b50565b612f1181612845565b8114612f1c57600080fd5b50565b612f2881612857565b8114612f3357600080fd5b50565b612f3f81612863565b8114612f4a57600080fd5b50565b612f56816128af565b8114612f6157600080fd5b5056fea264697066735822122058995f1297608491a93feb12aaf3261c1b04fed37874688a95a0dcbcb865328d64736f6c63430008070033",
  "linkReferences": {},
  "deployedLinkReferences": {}
}